:020000040800F2
:10000000E806002091010008990100089B01000802
:100010009D0100089F010008A101000800000000E8
:10002000000000000000000000000000A301000824
:10003000A501000800000000A7010008A9010008B0
:10004000AB010008AB010008AB010008AB010008E0
:10005000AB010008AB010008AB010008AB010008D0
:10006000AB010008AB010008AB010008AB010008C0
:10007000AB010008AB010008AB010008AB010008B0
:10008000AB010008AB010008AB010008AB010008A0
:10009000AB010008AB010008AB010008AB01000890
:1000A000AB010008AB010008AB010008AB01000880
:1000B000AB010008AB010008AB010008AB01000870
:1000C000AB010008AB010008AB010008AB01000860
:1000D000AB010008AB010008AB010008AB01000850
:1000E000AB010008AB010008AB01000800F002F80A
:1000F00000F03FF80AA090E8000C82448344AAF183
:100100000107DA4501D100F034F8AFF2090EBAE880
:100110000F0013F0010F18BFFB1A43F0010318473B
:1001200080170000A0170000103A24BF78C878C1DB
:10013000FAD8520724BF30C830C144BF04680C60ED
:10014000704700000023002400250026103A28BF35
:1001500078C1FBD8520728BF30C148BF0B60704739
:10016000782900F07180002070471FB51FBD10B5C1
:1001700010BD00F0AAF91146FFF7F7FF01F0ECFA05
:1001800000F0C8F903B4FFF7F2FF03BC00F0D0F9A8
:100190000948804709480047FEE7FEE7FEE7FEE71B
:1001A000FEE7FEE7FEE7FEE7FEE7FEE70448054957
:1001B000054A064B70470000150D0008ED000008C9
:1001C000E8000020E8060020E8020020E802002005
:1001D0000FB41CB5074B06AA7B44694600900598EE
:1001E00000F05BF90020694600F06AF91CBC5DF87C
:1001F00014FB0000E502000070B504468569006844
:10020000C10601D5302600E02026C00707D070BD0A
:10021000D4E9012130469047206A401C20626D1EBF
:10022000F6D570BD70B5044685690078C00707D162
:1002300070BDD4E9012120209047206A401C206233
:100240006D1EF6D570BD000070B504460D46214602
:100250001068AFF300802188090502D50F4A7A445F
:1002600002E00E4A7A440E32002104F1240305E034
:1002700000F00F060009965D5E54491C0028F7D176
:1002800020780023000704D5702D02D009B1022385
:1002900011322046BDE8704000F0A1B8E015000022
:1002A0002DE9F05F894604464FF0000ADFF824B1DB
:1002B000FB44C0F820A02046E168884700287DD094
:1002C000252806D0D4E901219047206A401C2062ED
:1002D000F1E700255F462046E1688847202806466A
:1002E00007DB312E05D2B81910F8200C08B10543F0
:1002F000F1E7A80701D525F00405C4F81CA00027E4
:10030000C4F818A02A2E09D0304601F093FA38B369
:1003100004EB8708303EC8F8186019E059F8041B50
:10032000204604EB87029161E1688847012F064669
:1003300018D1E069002820DA25F020051DE0D8F862
:10034000180000EB800006EB40003038C8F81800B9
:100350002046E1688847064601F06CFA0028EED195
:10036000012F0AD02E2E08D12046E16888477F1C35
:100370000646022F45F02005C4DBA069002803DAF9
:10038000404245F00105A061E80701D025F01005C5
:10039000A6B1A6F14100192802D8203645F400651F
:1003A0004A463146204625604D46FFF7D9FE60B1EA
:1003B000012807D0ED1D25F0070000E007E000F15F
:1003C000080978E705F1040975E730467AE7206AFD
:1003D000BDE8F09FB61500007047704770472DE9E3
:1003E000F0470D4699469246044600F124080168FC
:1003F000880604D5E06921F01001216000E00120A9
:10040000A84201DD471B00E00027A1697A1902EB31
:100410000900081AA0612078C00602D42046FFF720
:10042000EBFE002608E0D4E901211AF80600904707
:10043000206A401C761C20624E45F4DB2078C00602
:100440000AD52046FFF7D8FE06E0D4E90121302086
:100450009047206A401C2062381EA7F10107F4DC97
:1004600007E0D4E9012118F805009047206A401CF4
:100470002062281EA5F10105F3DC2046FFF7D2FE1D
:100480002078000602D50220BDE8F0870120FBE7B6
:1004900001694A1C02610878704700B58FB0CDE948
:1004A00001310021059105497944CDE90310114638
:1004B0006846FFF7F5FE0FB000BD0000E5FFFFFF47
:1004C0000A6802F8010B0A607047754600F02CF8C4
:1004D000AE4605006946534620F00700854618B031
:1004E00020B5FFF763FEBDE820404FF000064FF057
:1004F00000074FF000084FF0000BAC46ACE8C00915
:10050000ACE8C009ACE8C009ACE8C00921F00701BB
:100510008D46704710B50446AFF300802046BDE815
:100520001040FFF72FBE0000004870470800002071
:1005300001491820ABBEFEE726000200704700000C
:1005400080B500F0CFFE80BD10B5002808BF10BDFB
:10055000044600BF4FF47A7000F004F8013CF9D172
:1005600010BD0000B0B540F20045C4F200050446DD
:100570002846002100F048FC284600F001FCA0427B
:10058000FAD3B0BD2DE9F041CA7802F00F0CD306C2
:1005900044BF8B784CEA030C09880B0621D0056810
:1005A00000234FF001084FF00F0E002608E000BFB7
:1005B000282A08BF47610136082E03F104030FD033
:1005C00008FA06F70F42F6D00EFA03F425EA0404FF
:1005D0000CFA03F5482A45EA0405E9D10761EAE780
:1005E0000560B1F5807F38BFBDE8F0814468002325
:1005F0004FF4807E4FF00F08002607E0282A08BF3E
:1006000047610136082E03F1040310D00EFA06F7F5
:1006100007EA0105BD42F4D108FA03F5AC430CFA30
:1006200003F5482A44EA0504E8D10761E9E7446094
:10063000BDE8F08141617047016170474FF6FF717D
:10064000C0F20241016070470288002942F48063D1
:1006500008BF22F48063038070470000828A008B09
:1006600060F3174202EA0100401AB0FA80F0400934
:10067000704700000288002942F0010308BF22F001
:1006800001030380704700000288002942F4807350
:1006900008BF22F48073038070470000028800299D
:1006A00042F4007308BF22F4007303807047000017
:1006B00082B00022019200920090080F01900198F0
:1006C000002821F07F40009906BF000C183114313A
:1006D000009100990968084018BF012002B07047D6
:1006E00070B586B0044680880D4620F03F0601A80C
:1006F00000F006FA03994DF68360C4F21B30A1FBAB
:10070000000346EA9340A080208820F0010020806A
:100710002A6848F2A060C0F2010082424FEA93408A
:1007200008D85200B1FBF2F14FF6FC72114208BF3B
:10073000042125E0EB884BF6FF76B34204D102EBAF
:100740004202B1FBF2F105E019235A43B1FBF2F189
:1007500041F480414FF49672504344F6D352C1F2B3
:100760006202A0FB020208466FF31F30B0FA80F06D
:100770004009084348F20001CFF6FF710143900998
:1007800001302084A18320884FF6F53140F001002C
:10079000208020886A890840A98808431043208067
:1007A000A88929890843208106B070BD80B540F230
:1007B000D801C2F20001002818BF0120C87000F063
:1007C00007F880BD80B5012000F06EF880BD000004
:1007D00080B540F2E001C2F20001087840F2D80C86
:1007E0004FF0FF32C2F2000C0CEB0203C0F34600E4
:1007F0005B780132002B18BF60F07F00072AF3D12D
:1008000008704E20012200F0ADF880BDB0B5322056
:10081000FFF79AFE00F00AF940F2D804C2F2000491
:100820000025C4E90055FFF7D3FF2570FFF7D0FF7F
:100830006570FFF7CDFF032000F04CF80520FFF7AF
:1008400083FE032000F046F80120FFF77DFE032021
:1008500000F040F80120FFF777FE022000F03AF8A0
:100860000120FFF771FE282000F01EF80C2000F098
:100870001BF80E2000F018F8012000F015F8B0BDAC
:1008800080B5C02000F010F880BD000010B50178E0
:10089000002908BF10BD441EC8B200F09BF8A17823
:1008A00001340029F8D110BD70B5044600F064F899
:1008B00040F2D805C2F2000500262E70FFF788FF2F
:1008C0006E70FFF785FF200900F004F8204600F065
:1008D00001F870BD10B540F2D804C0F3C001C2F2F7
:1008E0000004E171C0F38001A171C0F3400100F088
:1008F0000100207101206171A070FFF769FF0020E5
:10090000A070FFF765FF10BD0288B1F5006F22F4FB
:10091000006308BF42F400630380704780B503465C
:1009200045F20040C4F2000000F062FD80BD00000E
:10093000008AC0B27047000041F00103002A08BFDE
:1009400001F0FE03038270470182704741F2883153
:100950000022CBF6FF72002380E80E004FF48041A6
:100960008181704780B5034645F20040C4F2000023
:1009700000F056FE80BD0000F0B581B040F2D80511
:10098000C2F200054FF001306860FFF721FF00263A
:100990002E70FFF71DFF01276F70FFF719FF0DF194
:1009A000030400BFAF70FFF713FF4F202146012261
:1009B000FFF7B4FFAE70FFF70BFFAF70FFF708FF54
:1009C000AE70FFF705FF9DF803000007EAD401B001
:1009D000F0BD0000B0B50446FFF7CEFF40F2D805E9
:1009E000C2F2000501202870FFF7F2FE00206870B7
:1009F000FFF7EEFE2009FFF76DFF2046FFF76AFFC5
:100A0000B0BD000080B582B01020012100F06CF86C
:100A100042F20000C1F20300019041F20000C4F272
:100A2000010001A9FFF7AEFD02B080BD80B545F21F
:100A3000004048F2A061C4F20000C0F201010022AF
:100A400000F07EFC80BD000080B588B0012001214F
:100A500000F032F84720059040F2CF70069005A9CB
:100A60004FF0804000F0D2F94FF08040012100F0BB
:100A70007DF96020C0F2010001900020CDF80A004D
:100A800001A94FF0804000F07DF94FF0804008212F
:100A900000F0B4F90420012100F026F80120C1F68D
:100AA0000200009040F60000C4F201006946FFF722
:100AB00069FD08B080BD0000002941F21C01C4F2AC
:100AC00002010A680CBF22EA000010430860704768
:100AD000002941F21001C4F202010A680CBF22EAA7
:100AE0000000104308607047002941F21801C4F269
:100AF00002010A680CBF22EA000010430860704738
:100B000010B541F20404C4F20204226802F00C029F
:100B1000082A41F20022C0F27A021CD12368D4F8DC
:100B200000C0C3F3834E5FEACC330EF1020C06D44F
:100B300040F60012C0F23D020CFB02F20BE023680B
:100B40009B0302D40CFB02F205E040F60012C0F257
:100B50003D020CFB02F20260226841F67F03C2F301
:100B60000312C0F600039A5C0168D140416022681C
:100B7000C2F302229A5C21FA02F282602268C2F376
:100B8000C2229A5C41F67B03D140C1602268C0F664
:100B90000003C2F381329A5CB1FBF2F1016110BD36
:100BA0000288002942F0400308BF22F0400303807E
:100BB000704700000089084018BF012070470000FE
:100BC00080897047818170472DE9F04102880B8848
:100BD00002F4415C4A88B1F804E043EA0C03CC8893
:100BE0001A430D8942EA0E024E8922438F892A4315
:100BF000B1F80E8032433A4342EA08020280828B07
:100C000022F400628283098A0182BDE8F08100003B
:100C1000B0B5342540F2E374C4F20005143C6420FE
:100C20002C80FFF791FC132CF8D8B0BD70B534259B
:100C30006FF01304C4F2000540F2BC761434642053
:100C40002C80FFF781FCB442F8D370BD80B500F072
:100C500001F880BD82B041F204000021C4F202001C
:100C60000191009150F8041C41F4803140F8041CBB
:100C700050F8041C01F400310091019901310191F7
:100C8000009919B90199B1F5A06FF1D150F8041C80
:100C9000890354BF0021012100910099012936D117
:100CA00042F20001C4F202010A6842F010020A6036
:100CB0000A6822F007020A600A6842F002020A602B
:100CC0000168016001680160016841F480610160B0
:100CD000016821F47C110160016841F4E8110160B0
:100CE00050F8041C41F0807140F8041C50F8041CBA
:100CF0008901FBD5016821F003010160016841F021
:100D000002010160016801F00C010829FAD102B06A
:100D10007047000080B541F20000C4F20200016893
:100D2000002241F0010101604168CFF6FF0211404D
:100D3000416001684FF6FF72CFF6F6621140016024
:100D4000016821F480210160416821F4FE014160C5
:100D50004FF41F018160FFF779FF4EF60850CEF285
:100D600000004FF00061016080BD00000288002992
:100D700042F0010308BF22F0010303807047000026
:100D8000808C704710B5028C22F001020284048C22
:100D9000B0F804E0038B0A8823F0730343EA020CE3
:100DA0000A8924F002031A43A0F180434C88A3F57A
:100DB00096334FEAB323072B42EA040215D80124E5
:100DC00004FA03F313F0E50F0FD04B8922F00C0265
:100DD00023F004038C881A4322438C892EF4407E2E
:100DE000CB8944EA0E0444EA030EA0F804E0A0F81C
:100DF00018C0C9888186028410BD0000028B22F0D1
:100E000008021143018370478184704740F6FF3325
:100E1000B0F800C0C4F2000398420FDCB0F1804F7C
:100E20001ED040F20043C4F20003984218D040F6AE
:100E30000003C4F20003984212D016E040F60043CB
:100E4000C4F2000398420BD043F20043C4F2010302
:100E5000984205D042F60043C4F20103984204D1FF
:100E60004B882CF0700243EA020C41F2004240F43D
:100E70008063C4F20002934204D0CA882CF4407309
:100E800042EA030CA0F800C08A888285A0F1804263
:100E9000A2F596320B884FEAB222072A038507D8BB
:100EA000012303FA02F212F0E50F1CBF097A018652
:100EB000012181827047000080B5142000F0D0F835
:100EC000800718BF80BD1420032100F00BF980BDFE
:100ED00010B582B004460D20002100F097F942F2CF
:100EE000930020800DF1060C0C202146022223469F
:100EF000CDF800C000F002F908B102B010BD14F83E
:100F0000012B0021002300BFD2B25340625C0131AB
:100F10000429F9D1934218BF022002B010BD00008D
:100F200070B50D46064605200421144600F034F83D
:100F30000A20802100F0D6F83DB1013E16F8011FCD
:100F4000092000F063F9013DF8D10120032100F0F0
:100F50005DF9FF25052000F083F8013D290602D048
:100F600010F00400F6D0222000F07AF82070212042
:100F700000F076F8607070BDB0B5044626202146BA
:100F800000F08AF8054618B92046FFF7A1FF05468C
:100F900000F00EF82846B0BDB0B50C46054600F08E
:100FA0005FF820EA0401284600F030F9B0BD0000E7
:100FB00010B584B050200DF10A04ADF80A00A21C4F
:100FC00020460221FFF7ACFF0DF10E0C0C2021464C
:100FD00004222346CDF800C000F090F804B010BD04
:100FE00080B500F023F800F02BF900F075F82A2006
:100FF0008D2100F00BF92B203E2100F007F92D2068
:101000001E2100F003F92C20002100F0FFF826201B
:10101000702100F0FBF81520402100F0F7F81120B6
:101020003D2100F0F3F8FFF747FF80BD10B582B017
:1010300008200121FFF758FD41F2000040F600446E
:10104000C1F20300C4F20104019001A92046FFF798
:1010500099FA20464FF48051FFF7EEFA02B010BD26
:10106000B0B540F60045C4F20105044628464FF4E9
:101070008051FFF7DFFA802040EA4400C0B200F060
:101080001BF9002000F018F9044628464FF480515F
:10109000FFF7D2FA2046B0BDB0B582B00C46054687
:1010A0000D20072100F0B2F825700DF106050C2087
:1010B000214601222346009500F020F8BDF80610D5
:1010C000022210294FF0020108BF0146002818BF74
:1010D0001146084602B0B0BD80B501200F2100F0D6
:1010E00095F880BDB0B50C460546FFF7B9FF40EA5C
:1010F0000401284600F08AF8B0BD00002DE9F04751
:101100009946164605460C280F4605D00E2D07D1E8
:1011100011244FF0120806E031244FF0770802E066
:1011200001244FF0000808F18001022000F06EF861
:1011300004208021FFF730FF0A208021FFF7D2FF33
:101140000120002100F062F83EB1013F17F8011FB5
:10115000092000F05BF8013EF8D10120294600F09B
:1011600055F80C2D03D10D208021FFF7BBFFDDF8D2
:1011700020A04FF4FA6700BF0420FFF771FF013F82
:10118000390410D006460442F6D00D208021FFF726
:1011900003FF0620FFF764FF10F01B0F0BD00225A2
:1011A0002846BDE8F0870D208021FFF7F5FE0225D7
:1011B0002846BDE8F08708EA06000C2D00F001057E
:1011C000F6D10A20FFF74CFF06460C20FFF748FF38
:1011D00010F0070040EAC600A0F1080008BFF000C8
:1011E000AAF80000002E08BF01264FF0FF34102E91
:1011F00028BF10260920FFF733FF09EB04014870D0
:10120000A01C0134B042F5D3D2E7000070B540F61F
:101210000046C4F201060C46054630464FF48051A4
:10122000FFF708FA7E2000EA450000F045F8204666
:1012300000F042F830464FF48051FFF7FDF970BDE1
:1012400070B586B04FF480400121FFF735FC0820CF
:101250000121FFF749FC43F600044AF20000C4F202
:101260000004C1F6030004F5544505AE0590284678
:101270003146FFF787F944F20000C0F203400590C1
:1012800028463146FFF77EF94FF08270009000202B
:1012900001904FF000700290182003900720ADF8E5
:1012A000100069462046FFF78FFC20460121FFF71A
:1012B00077FC06B070BD000010B543F60004C4F220
:1012C000000401462046FFF77DFC00BF2046802138
:1012D000FFF770FC0128F9D02046FFF771FCC0B27F
:1012E00010BD000010B584B002200121FFF7E4FB1F
:1012F00040F20000C2F2000000684DF68361C4F2C3
:101300001B31A0FB01014FF0FF3000EB9140ADF825
:1013100004000020ADF80A00002040F20044CFF69F
:10132000FF70C4F20004CDF8060001A92046FFF7C3
:101330006DFD20460121FFF719FD04B010BD00002E
:101340002DE9F04186B08846044645F20045082064
:1013500001211646C4F20005FFF7C6FB05A8FFF7FA
:101360006DF9AC420BD04FF4800001214FF480079F
:10137000FFF7A2FB4FF44060ADF8140009E04FF412
:10138000001001214FF40017FFF796FBC020ADF8C5
:10139000140041F60340ADF8160005F5384005A9E4
:1013A000FFF7F0F838460121FFF792FB384600219D
:1013B000FFF78EFB01AF3846FFF7C8FA0020CBF6E7
:1013C000FF70029040F20040C4F20000CDF80E0021
:1013D00020463946ADF80C60CDF80480FFF780F95F
:1013E00020460121FFF746F906B0BDE8F081000074
:1013F0002DE9F04381B004460020002A009000F05F
:101400000A811D46164689464FF6FF70009000BFC0
:1014100020464FF40031FFF74BF928B10098411EE8
:1014200000280091F4D137E0012720460121C0F2C5
:101430000307FFF709F920464FF2FF71FFF764FA3F
:1014400020460121FFF720F94FF6FF70009000BF02
:1014500020463946FFF702F928B90098411E0028B6
:101460000091F5D118E040F20408204629460122F7
:10147000C1F20008FFF760FA4FF6FF70A8F102050D
:10148000009000BF20462946FFF712F940B90098A6
:10149000411E00280091F5D1002001B0BDE8F08385
:1014A000022E1FD0012E3BD120460021FFF7CCF8A1
:1014B00072B6208B20460121FFF7F0F862B64FF696
:1014C000FF7008F13C05009020462946FFF7F0F830
:1014D000002874D10098411E00284FF000000091B0
:1014E000F2D195E020464FF40061FFF70DFA72B695
:1014F000208B20460021FFF7A7F862B64FF6FF7059
:10150000009000BF20464146FFF7D2F800285CD18A
:101510000098411E00284FF000000091F2D177E0C2
:10152000208B4FF6FF75032E00951CD0013E00BFA7
:1015300020464146FFF7BCF838B90098411E002804
:101540004FF000000091F3D162E02046FFF7F0F980
:1015500009F8010BE7E700BF0098411E00284FF093
:101560000000009154D020464146FFF7A1F8002822
:10157000F2D020460021FFF767F872B62046FFF749
:10158000D7F989F8000020460121FFF787F862B6F5
:101590002046FFF7CDF989F801004FF6FF7007F1FB
:1015A0003F05009020462946FFF758F8D0B900982B
:1015B000411E00284FF000000091F3D128E02046A2
:1015C000FFF7B6F989F8000011E072B62046012154
:1015D000FFF764F8208A89F8000062B6208A89F84B
:1015E000010004E02046FFF7A3F989F802004FF656
:1015F000FF7008F10C05009020462946FFF758F8C7
:1016000048B10098411E00284FF000000091F3D12E
:1016100001B0BDE8F083012001B0BDE8F083000017
:101620002DE9F04182B004460020002A019000F02C
:101630008E801F46164688464FF6FF70019000BF09
:1016400020464FF40031FFF733F828B10198411ECE
:1016500000280191F4D129E020460121FFF714F878
:1016600001254FF6FF70C0F2030501902046294680
:10167000FEF7F4FF28B90198411E00280191F5D129
:1016800014E0204639460022FFF756F982254FF62E
:10169000FF70C0F20705019020462946FEF7DEFFE5
:1016A00040B90198411E00280191F5D1002002B0F7
:1016B000BDE8F08198F8001004272046C1F2000729
:1016C000FFF742F9751E4FF6FF7601961DD008F11F
:1016D000010800BF20463946FEF7EAFF28B9019805
:1016E000411E00280191F5D1E0E798F8001020464E
:1016F000FFF72AF9013D0196E9D106E00198411E64
:1017000000284FF0000001911ED020463946FEF718
:10171000CFFF0028F2D020460121FEF7BFFF45F29F
:1017200000454FF6FF7007F10C04C4F2000501906C
:1017300028462146FEF7BCFF48B10198411E00280B
:101740004FF000000191F3D102B0BDE8F08101201B
:1017500002B0BDE8F081000084B041F20004C4F2A0
:101760000104FEF7EDFEFFF74DF9FFF739FCFFF737
:101770006BF9FFF74BF8FFF725F80120FFF716F894
:1017800041F68F08C0F600084046FFF77FF8FFF7E4
:1017900077F81DA0FFF77AF840F2680640F26D076F
:1017A000C2F20006C2F200070FF26C093046FFF7E2
:1017B000E3FB0028FAD1B078F17832787378357984
:1017C000CDE90001384649460295FEF701FDFEF7D6
:1017D000F9FF4046FFF75AF8FFF752F83846FFF78F
:1017E00055F8FFF723FA20464FF40051FEF724FF87
:1017F00040F6B830FEF7A8FE20464FF40051FEF741
:1018000019FFFFF705FAD1E7524649445F50524F9E
:101810004A4543540000000049443A2030782530BE
:10182000325825303258253032582530325825303C
:101830003258000030380A2801D2012070470020B9
:1018400070473031323334353637383941424344CA
:101850004546403058003031323334353637383928
:10186000616263646566403078000400000800002F
:101870000000000000020001000010020406080041
:1018800000000001020304010203040607080953D3
:10189000544D3332202D204D465243353232000014
:1018A000C0180008000000200800000028010008FF
:1018B000C818000808000020E006000044010008E5
:0818C00000A24A040000000030
:04000005080000ED02
:00000001FF
