:020000040800F2
:10000000E006002091010008990100089B0100080A
:100010009D0100089F010008A101000800000000E8
:10002000000000000000000000000000A301000824
:10003000A501000800000000A7010008A9010008B0
:10004000AB010008AB010008AB010008AB010008E0
:10005000AB010008AB010008AB010008AB010008D0
:10006000AB010008AB010008AB010008AB010008C0
:10007000AB010008AB010008AB010008AB010008B0
:10008000AB010008AB010008AB010008AB010008A0
:10009000AB010008AB010008AB010008AB01000890
:1000A000AB010008AB010008AB010008AB01000880
:1000B000AB010008AB010008AB010008AB01000870
:1000C000AB010008AB010008AB010008AB01000860
:1000D000AB010008AB010008AB010008AB01000850
:1000E000AB010008AB010008AB01000800F002F80A
:1000F00000F03FF80AA090E8000C82448344AAF183
:100100000107DA4501D100F034F8AFF2090EBAE880
:100110000F0013F0010F18BFFB1A43F0010318473B
:10012000640F0000840F0000103A24BF78C878C123
:10013000FAD8520724BF30C830C144BF04680C60ED
:10014000704700000023002400250026103A28BF35
:1001500078C1FBD8520728BF30C148BF0B60704739
:10016000782900F07180002070471FB51FBD10B5C1
:1001700010BD00F0AAF91146FFF7F7FF00F01EFFCF
:1001800000F0C8F903B4FFF7F2FF03BC00F0D0F9A8
:100190000948804709480047FEE7FEE7FEE7FEE71B
:1001A000FEE7FEE7FEE7FEE7FEE7FEE70448054957
:1001B000054A064B7047000021090008ED000008C1
:1001C000E0000020E0060020E0020020E002002025
:1001D0000FB41CB5074B06AA7B44694600900598EE
:1001E00000F05BF90020694600F06AF91CBC5DF87C
:1001F00014FB0000E502000070B504468569006844
:10020000C10601D5302600E02026C00707D070BD0A
:10021000D4E9012130469047206A401C20626D1EBF
:10022000F6D570BD70B5044685690078C00707D162
:1002300070BDD4E9012120209047206A401C206233
:100240006D1EF6D570BD000070B504460D46214602
:100250001068AFF300802188090502D50F4A7A445F
:1002600002E00E4A7A440E32002104F1240305E034
:1002700000F00F060009965D5E54491C0028F7D176
:1002800020780023000704D5702D02D009B1022385
:1002900011322046BDE8704000F0A1B8E60D000024
:1002A0002DE9F05F894604464FF0000ADFF824B1DB
:1002B000FB44C0F820A02046E168884700287DD094
:1002C000252806D0D4E901219047206A401C2062ED
:1002D000F1E700255F462046E1688847202806466A
:1002E00007DB312E05D2B81910F8200C08B10543F0
:1002F000F1E7A80701D525F00405C4F81CA00027E4
:10030000C4F818A02A2E09D0304600F04FFE38B3AA
:1003100004EB8708303EC8F8186019E059F8041B50
:10032000204604EB87029161E1688847012F064669
:1003300018D1E069002820DA25F020051DE0D8F862
:10034000180000EB800006EB40003038C8F81800B9
:100350002046E1688847064600F028FE0028EED1D6
:10036000012F0AD02E2E08D12046E16888477F1C35
:100370000646022F45F02005C4DBA069002803DAF9
:10038000404245F00105A061E80701D025F01005C5
:10039000A6B1A6F14100192802D8203645F400651F
:1003A0004A463146204625604D46FFF7D9FE60B1EA
:1003B000012807D0ED1D25F0070000E007E000F15F
:1003C000080978E705F1040975E730467AE7206AFD
:1003D000BDE8F09FBC0D00007047704770472DE9E5
:1003E000F0470D4699469246044600F124080168FC
:1003F000880604D5E06921F01001216000E00120A9
:10040000A84201DD471B00E00027A1697A1902EB31
:100410000900081AA0612078C00602D42046FFF720
:10042000EBFE002608E0D4E901211AF80600904707
:10043000206A401C761C20624E45F4DB2078C00602
:100440000AD52046FFF7D8FE06E0D4E90121302086
:100450009047206A401C2062381EA7F10107F4DC97
:1004600007E0D4E9012118F805009047206A401CF4
:100470002062281EA5F10105F3DC2046FFF7D2FE1D
:100480002078000602D50220BDE8F0870120FBE7B6
:1004900001694A1C02610878704700B58FB0CDE948
:1004A00001310021059105497944CDE90310114638
:1004B0006846FFF7F5FE0FB000BD0000E5FFFFFF47
:1004C0000A6802F8010B0A607047754600F02CF8C4
:1004D000AE4605006946534620F00700854618B031
:1004E00020B5FFF763FEBDE820404FF000064FF057
:1004F00000074FF000084FF0000B21F00701AC4659
:10050000ACE8C009ACE8C009ACE8C009ACE8C00977
:100510008D46704710B50446AFF300802046BDE815
:100520001040FFF72FBE00000048704780000020F9
:1005300001491820ABBEFEE726000200704710B547
:1005400000F00CFD10BD10B5044604E04FF47A70C5
:1005500000F004F8641E002CF8D110BD10B504465C
:100560000021054800F071FA00BF034800F014FABA
:10057000A042FAD310BD0000000400402DE9F04174
:10058000024600250026002000230024002791F8C1
:1005900003C00CF00F0591F803C00CF0100CBCF177
:1005A000000F03D091F802C04CEA050591F800C095
:1005B000BCF1000F31D0146800202BE04FF0010C8B
:1005C0000CFA00F3B1F800C00CEA03069E4220D1F9
:1005D00083004FF00F0C0CFA03F7BC4305FA03FC41
:1005E0004CEA040491F803C0BCF1280F06D14FF087
:1005F000010C0CFA00FCC2F814C00AE091F803C028
:10060000BCF1480F05D14FF0010C0CFA00FCC2F808
:1006100010C0401C0828D1D31460B1F800C0BCF150
:10062000FF0F34DD546800202EE000F1080C4FF07D
:10063000010808FA0CF3B1F800C00CEA03069E4268
:1006400021D183004FF00F0C0CFA03F7BC4305FADD
:1006500003FC4CEA040491F803C0BCF1280F05D157
:1006600000F1080C08FA0CF8C2F8148091F803C0E5
:10067000BCF1480F07D100F1080C4FF0010808FA4F
:100680000CF8C2F81080401C0828CED35460BDE896
:10069000F0814161704701617047000008B5012198
:1006A000102000F065F810208DF8030003208DF86D
:1006B00002004FF40050ADF8000069460148FFF712
:1006C0005DFF08BD0010014000B589B0012108465A
:1006D00000F03EF84720ADF8180040F2CF70ADF8BA
:1006E0001C000020ADF81E00ADF81A0006A94FF05E
:1006F000804000F0ADF90121880700F041F9602049
:10070000ADF808000120ADF80A000020ADF8100097
:10071000ADF80E0002A94FF0804000F041F9082129
:10072000C80600F089F90121042000F021F8012019
:10073000ADF8040018208DF8070002208DF806009F
:1007400001A90248FFF71AFF09B000BD00080140E7
:1007500029B1064AD2690243044BDA6104E0034A34
:10076000D2698243014BDA617047000000100240F9
:1007700029B1064A92690243044B9A6104E0034A94
:1007800092698243014B9A61704700000010024059
:1007900021B1028842F04002028004E002884FF654
:1007A000BF731A40028070470246002013890B4035
:1007B0000BB1012000E00020704701468889704796
:1007C0008181704710B50022028802F441520B88E3
:1007D0004C8823438C882343CC8823430C892343B0
:1007E0004C8923438C892343CC8923431A430280B9
:1007F000838B4FF2FF74234083830B8A038210BDE7
:1008000010B540F2CF7406E04FF080418C86642032
:10081000FFF799FE143C002CF6DA10BD10B5002449
:1008200006E04FF080418C866420FFF78CFE143484
:10083000B4F5FA6FF5DB10BD10B500F001F810BD8E
:100840000CB50020019000903348006840F48030DF
:100850003149086000BF3048006800F40030009063
:100860000198401C0190009818B90198B0F5A06F4C
:10087000F1D12948006800F4003010B10120009047
:1008800001E0002000900098012843D1234800682F
:1008900040F01000214908600846006820F0070079
:1008A00008600846006840F0020008601A48406886
:1008B000194948600846406848600846406840F466
:1008C000806048600846406820F47C104860084614
:1008D000406840F4E81048600846006840F08070C6
:1008E000086000BF0C48006800F000700028F9D0D4
:1008F0000948406820F003000749486008464068FE
:1009000040F00200486000BF0348406800F00C005F
:100910000828F9D10CBD0000001002400020024060
:1009200010B51348006840F00100114908600846FE
:100930004068104908400E494860084600680E4962
:1009400008400B4908600846006820F480200860D1
:100950000846406820F4FE0048604FF41F0088609D
:10096000FFF76AFF4FF000600449086010BD000007
:10097000001002400000FFF8FFFFF6FE08ED00E067
:1009800021B1028842F00102028004E002884FF6A1
:10099000FE731A40028070470146888C7047000041
:1009A00070B5002400220023058C4FF6FE763540FA
:1009B0000584028C8388048B4FF68F752C40B51EFE
:1009C0002C400D882C43751E2A400D892A434D88E2
:1009D0002A43144DA8420BD0134DA84208D0134D02
:1009E000A84205D0124DA84202D0124DA84213D100
:1009F0004FF6F7752A404D892A434FF6FB752A407A
:100A00008D882A434FF6FF652B404FF6FF552B404C
:100A10008D892B43CD892B4383800483CD888586A4
:100A2000028470BD002C01400034014000400140B0
:100A300000440140004801400A460021018B4FF666
:100A4000F773194011430183704781847047000098
:100A5000002202881D4B98420ED01D4B98420BD0AD
:100A6000B0F1804F08D01B4B984205D01A4B9842EA
:100A700002D01A4B984204D14FF68F731A404B881C
:100A80001A43174B984207D0164B984204D04FF6A2
:100A9000FF431A40CB881A4302808B8883850B88DA
:100AA00003850A4B98420BD0094B984208D00E4B55
:100AB000984205D00D4B984202D00D4B984201D17F
:100AC0000B7A03860123838270470000002C0140CB
:100AD000003401400004004000080040000C0040C9
:100AE000001000400014004000400140004401405C
:100AF0000048014010B5142000F0D6F8044604F078
:100B0000030018B90321142000F009F910BD2DE9E4
:100B1000FC410446002700210D2000F0A3F993209A
:100B200020702020607001A82346022221460090F8
:100B30000C2000F001F906465EB9002503E0605D77
:100B40004740681CC5B2042DF9DB605DB84200D097
:100B500002263046BDE8FC812DE9F0410746884673
:100B600015460421052000F039F880210A2000F004
:100B7000D6F8002405E0395D092000F073F9601C07
:100B8000C4B24445F7DB0321012000F06BF9FF24D8
:100B900000BF052000F088F80646601EC4B21CB1F4
:100BA00006F004000028F4D0222000F07DF8287020
:100BB000212000F079F86870BDE8F08170B5044636
:100BC0002146262000F08CF805461DB92046FFF787
:100BD0009EFF054600F00FF8284670BD70B505462B
:100BE0000C46284600F060F820EA04063146284604
:100BF00000F038F970BD0EB550208DF804000020CB
:100C00008DF805000DF10602022101A8FFF7A4FFEF
:100C100002A801AB042201A900900C2000F08CF87E
:100C20000EBD10B500F024F800F034F900F071F8B2
:100C30008D212A2000F016F93E212B2000F012F918
:100C40001E212D2000F00EF900212C2000F00AF9C1
:100C50007021262000F006F94021152000F002F94D
:100C60003D21112000F0FEF8FFF744FF10BD000009
:100C700008B501210820FFF77BFD10208DF8030047
:100C800003208DF802004FF48050ADF80000694653
:100C90000448FFF773FC4FF480510248FFF7FBFC58
:100CA00008BD0000000C014070B504464FF48051AF
:100CB0000A48FFF7EEFC7E2101EA440141F0800082
:100CC00000F038F9002000F035F905464FF4805166
:100CD0000248FFF7E0FC284670BD0000000C014010
:100CE0007CB506460C4607210D2000F0BBF82670A7
:100CF00001A823460122214600900C2000F01CF898
:100D000005461DB9BDF80400102800D0022528466C
:100D10007CBD10B50F21012000F0A4F810BD70B506
:100D200005460C462846FFF7BFFF40EA0406314659
:100D3000284600F097F870BD2DE9FE4F064688461C
:100D400091469A46DDF830B00220029000200190D2
:100D500000900C2E06D00E2E09D1122001901020EA
:100D6000009005E0772001903020009000E000BF67
:100D700000BF019840F08001022000F073F880214C
:100D80000420FFF72BFF80210A20FFF7C8FF002176
:100D9000012000F067F8002506E018F8051009208A
:100DA00000F060F8681C85B24D45F6DB3146012045
:100DB00000F058F80C2E03D180210D20FFF7AFFF73
:100DC0004FF4FA6500BF0420FFF76EFF0446681E6B
:100DD00085B235B104F0010018B900982040002810
:100DE000F1D080210D20FFF7F9FE002D36D006202E
:100DF000FFF75AFF00F01B0070BB00200290019823
:100E0000204000F0010008B1012002900C2E25D1F5
:100E10000A20FFF749FF04460C20FFF745FF00F0CA
:100E200007072FB1601E07EBC000ABF8000002E01F
:100E3000E000ABF8000004B90124102C00DD102400
:100E4000002506E00920FFF72FFF0AF80500681CBF
:100E500085B2A542F6DB01E0022002900298BDE8CF
:100E6000FE8F000070B504460D464FF480510848CF
:100E7000FFF70FFC7E2101EA440000F05BF82846F2
:100E800000F058F84FF480510148FFF704FC70BDA2
:100E9000000C014000B587B001218803FFF758FC22
:100EA00001210820FFF764FC18208DF81B000320A7
:100EB0008DF81A004FF42040ADF8180006A91B4821
:100EC000FFF75CFB04208DF81B0003208DF81A004F
:100ED0004FF48040ADF8180006A91448FFF74EFB08
:100EE0000020ADF804004FF48270ADF80600002039
:100EF000ADF80800ADF80A00ADF80C004FF4007032
:100F0000ADF80E001820ADF810000020ADF812006A
:100F10000720ADF8140001A90548FFF753FC012193
:100F20000348FFF735FC07B000BD0000000C01408E
:100F30000038004010B5044621460748FFF740FC42
:100F400000BF80210448FFF72FFC0128F9D0024898
:100F5000FFF733FCC0B210BD003800403EB500249E
:100F600001210220FFF7F4FB0D4800680D49B0FB9A
:100F7000F1F0401E84B24FF6FF70ADF80400ADF8FA
:100F800000400020ADF80600ADF8020069460648B2
:100F9000FFF75EFD01210448FFF7F2FC3EBD0000B3
:100FA0000800002040420F000004004030380A28AA
:100FB00001D2012070470020704700000EB5FFF7F6
:100FC000BEFAFFF76BFBFFF72CFEFFF77DFB25E07A
:100FD0001348FFF7F3FD08BB114800791049C978A1
:100FE0000F4A9278CDE9002102900D4843780278AB
:100FF0000CA11348FFF7ECF8FFF710FC4FF4005179
:101000001048FFF748FB40F6B830FFF79CFA4FF462
:1010100000510C48FFF73DFBFFF7F2FBD8E700005B
:101020000000002049443A203078253032582530DD
:101030003258253032582530325825303258000089
:101040001C00002000100140303132333435363777
:1010500038394142434445464030580030313233FC
:1010600034353637383961626364656640307800FC
:101070000400000800000000000000020001000061
:1010800010000000A4100008000000201C00000058
:1010900028010008C01000081C000020C406000041
:1010A00044010008000000000000000000A24A0403
:1010B0000000000000000000010203040607080908
:04000005080000ED02
:00000001FF
