:020000040800F2
:10000000680600208901000891010008930100089A
:100010009501000897010008990100080000000000
:100020000000000000000000000000009B0100082C
:100030009D010008000000009F010008A1010008C8
:10004000A3010008A3010008A3010008A301000800
:10005000A3010008A3010008A3010008A3010008F0
:10006000A3010008A3010008A3010008A3010008E0
:10007000A3010008A3010008A3010008A3010008D0
:10008000A3010008A3010008A3010008A3010008C0
:10009000A3010008A3010008A3010008A3010008B0
:1000A000A3010008A3010008A3010008A3010008A0
:1000B000A3010008A3010008A3010008A301000890
:1000C000A3010008A3010008A3010008A301000880
:1000D000A3010008A3010008A3010008A301000870
:1000E000A3010008A3010008A301000800F002F822
:1000F00000F03AF80AA090E8000C82448344AAF188
:100100000107DA4501D100F02FF8AFF2090EBAE885
:100110000F0013F0010F18BFFB1A43F0010318473B
:10012000BC060000DC060000103A24BF78C878C185
:10013000FAD8520724BF30C830C144BF04680C60ED
:10014000704700000023002400250026103A28BF35
:1001500078C1FBD8520728BF30C148BF0B60704739
:100160001FB51FBD10B510BD00F031F81146FFF7E7
:10017000F7FF00F005FB00F04FF803B4FFF7F2FFC4
:1001800003BC00F057F800000948804709480047C1
:10019000FEE7FEE7FEE7FEE7FEE7FEE7FEE7FEE737
:1001A000FEE7FEE704480549054A064B7047000094
:1001B000E1040008ED000008680000206806002047
:1001C000680200206802002070477047704775463B
:1001D00000F02CF8AE4605006946534620F00700B3
:1001E000854618B020B5FFF7DDFFBDE820404FF091
:1001F00000064FF000074FF000084FF0000BAC4630
:10020000ACE8C009ACE8C009ACE8C009ACE8C0097A
:1002100021F007018D46704710B50446AFF300800A
:100220002046BDE81040FFF7A8BF00000048704717
:100230000800002001491820ABBEFEE7260002009E
:1002400070470000B0B582B04FF4806040F6000403
:10025000ADF804000420C4F2010401AD8DF80700DC
:100260002046294600F00CF840F20020C1F60300B9
:1002700001902046294600F003F802B0B0BD00000E
:100280002DE9F041CA7802F00F0CD30644BF8B78F9
:100290004CEA030C09880B0621D0056800234FF0B7
:1002A00001084FF00F0E002608E000BF282A08BF03
:1002B00047610136082E03F104030FD008FA06F750
:1002C0000F42F6D00EFA03F425EA04040CFA03F503
:1002D000482A45EA0405E9D10761EAE70560B1F576
:1002E000807F38BFBDE8F081446800234FF4807EF2
:1002F0004FF00F08002607E0282A08BF47610136A3
:10030000082E03F1040310D00EFA06F707EA0105E0
:10031000BD42F4D108FA03F5AC430CFA03F5482AC0
:1003200044EA0504E8D10761E9E74460BDE8F081EB
:10033000002941F21C01C4F202010A680CBF22EA42
:100340000000104308607047002941F21801C4F210
:1003500002010A680CBF22EA0000104308607047DF
:1003600080B544F204000121FFF7EEFF01200121D6
:10037000FFF7DEFF80BD000010B541F20404C4F2B7
:100380000204226802F00C02082A41F20022C0F2A4
:100390007A021CD12368D4F800C0C3F3834E5FEA0D
:1003A000CC330EF1020C06D440F60012C0F23D022E
:1003B0000CFB02F20BE023689B0302D40CFB02F25D
:1003C00005E040F60012C0F23D020CFB02F20260B2
:1003D000226840F2CA73C2F30312C0F600039A5CAB
:1003E0000168D14041602268C2F302229A5C21FA7E
:1003F00002F282602268C2F3C2229A5C40F2C673A3
:10040000D140C1602268C0F60003C2F381329A5C19
:10041000B1FBF2F1016110BD80B500F001F880BDC3
:1004200082B041F204000021C4F202000191009167
:1004300050F8041C41F4803140F8041C50F8041CAE
:1004400001F400310091019901310191009919B92C
:100450000199B1F5A06FF1D150F8041C890354BF84
:100460000021012100910099012936D142F20001B9
:10047000C4F202010A6842F010020A600A6822F01F
:1004800007020A600A6842F002020A60016801601D
:1004900001680160016841F480610160016821F434
:1004A0007C110160016841F4E811016050F8041CFE
:1004B00041F0807140F8041C50F8041C8901FBD500
:1004C000016821F003010160016841F0020101604F
:1004D000016801F00C010829FAD102B07047000050
:1004E00080B541F20000C4F202000168002241F030
:1004F000010101604168CFF6FF02114041600168CF
:100500004FF6FF72CFF6F66211400160016821F4E8
:1005100080210160416821F4FE0141604FF41F0118
:100520008160FFF779FF4EF60850CEF200004FF0E1
:100530000061016080BD000080B584B048F6A04035
:1005400001904FF6FF70C0F20010029001A94FF029
:10055000804000F015F84FF08040012100F002F8D3
:1005600004B080BD0288002942F0010308BF22F0D8
:100570000103038070470000808C704781847047BE
:1005800040F6FF33B0F800C0C4F2000398420FDC1D
:10059000B0F1804F1ED040F20043C4F200039842F5
:1005A00018D040F60003C4F20003984212D016E0BF
:1005B00040F60043C4F2000398420BD043F20043DC
:1005C000C4F20103984205D042F60043C4F201038D
:1005D000984204D14B882CF0700243EA020C41F29D
:1005E000004240F48063C4F20002934204D0CA88FF
:1005F0002CF4407342EA030CA0F800C08A8882857C
:10060000A0F18042A2F596320B884FEAB222072A67
:10061000038507D8012303FA02F212F0E50F1CBF8D
:10062000097A0186012181827047000010B584B0EB
:100630004FF416500090002043F60004ADF80C0073
:1006400001904FF44020C4F2010402906946204614
:1006500000F028F82046012100F014F804B010BD85
:10066000B0B50C46054600BF2846802100F014F8BE
:100670000028F9D00020A8802846214600F06CF818
:10068000B0BD00008289002942F4005308BF22F463
:1006900000538381704700000088084018BF012084
:1006A0007047000070B586B00446008A0D46C988C0
:1006B00020F4405008432082A0894EF6F3110840F0
:1006C000A9882A896B89084310431843A081A08A0E
:1006D000A98920F44070084301AEA0823046FFF79C
:1006E0004BFE43F6000106F10800C4F201018C4202
:1006F00008BF06F10C0000681922B4F90C10504331
:100700002A680223002948BF012302FA03F1B0FB43
:10071000F1F048F21F51C5F2EB11A0FB01235A0979
:100720006FF0630302FB0300B4F90C300426002BC6
:1007300048BF032600FA06F000F13200A0FB0101D9
:100740004FF00F0048BF072000EA511040EA0210A6
:10075000208106B070BD00006FF35F21818070477B
:1007600010B504464FF080400021FFF707FF00BF9F
:100770004FF08040FFF700FFA042F9D310BD00000A
:10078000FFF7EEFDFFF75EFDFFF750FFFFF7D4FE2A
:1007900040F20000C2F2000043F60004451EC4F21D
:1007A000010400BF05262F4640F6B630FFF7D8FFFC
:1007B00017F8011F2046FFF753FF0220FFF7D0FF75
:1007C000013EF1D1EEE7020406080000000001023C
:1007D00003040102030406070809000000080008DA
:1007E0000000002008000000280100080808000898
:1007F000080000206006000044010008000000001E
:0808000001070C115900000072
:04000005080000ED02
:00000001FF
